:100000000C942A000C9447000C9447000C94470071
:100010000C9493030C9447000C9447000C944700F5
:100020000C9447000C943F030C9447000C944B0431
:100030000C9447000C9447000C9447000C94470024
:100040000C9447000C9447000C9447000C94470014
:100050000C94470011241FBECFE5D4E0DEBFCDBF16
:1000600010E0A0E6B0E0EEE0F1E102C005900D92F4
:10007000A03BB107D9F711E0A0EBB0E001C01D92A1
:10008000A630B107E1F70E9423020C9485080C9476
:10009000000080E00E9487049093B1008093B0003C
:1000A0008DEC0E94F2048091B0009091B10064E662
:1000B00070E00E947108862F6093C50080630E94E3
:1000C00028058091B0009091B10064E670E00E9434
:1000D00071088093C5006AE00E9465088093C200A1
:1000E00080630E9428058091C5006AE00E9465082F
:1000F000892F9093C20080630E9428058091B000F0
:100100009091B100855F914008F451C18091DB006E
:100110008F5F8093DB008B3008F089C180EC0E94F8
:10012000F2048AEF90E00197F1F78091DA0080FF06
:100130003AC18AE20E94280581E00E9487049093D8
:10014000B1008093B000855F914008F424C1809194
:10015000DC008F5F8093DC008B3008F060C181ECA5
:100160000E94F2048AEF90E00197F1F78091DA00A3
:1001700081FF0DC18AE20E94280582E00E94870467
:100180009093B1008093B000855F914008F4F7C070
:100190008091DD008F5F8093DD008B3008F037C1E8
:1001A00082EC0E94F2048AEF90E00197F1F78091CF
:1001B000DA0082FFE0C08AE20E94280583E00E9404
:1001C00087049093B1008093B000855F914008F45C
:1001D000CAC08091DE008F5F8093DE008B3008F014
:1001E0000EC183EC0E94F2048AEF90E00197F1F7D0
:1001F0008091DA0083FFB3C08AE20E94280584E080
:100200000E9487049093B1008093B000855F914075
:1002100008F49DC08091DF008F5F8093DF008B30FA
:1002200008F0E5C084EC0E94F2048AEF90E00197A8
:10023000F1F78091DA0084FF86C08AE20E942805E7
:1002400085E00E9487049093B1008093B000855FA1
:10025000914008F470C08091E0008F5F8093E000CF
:100260008B3008F0BCC085EC0E94F2048AEF90E06D
:100270000197F1F78091DA0085FF59C08AE20E9468
:10028000280586E00E9487049093B1008093B00017
:10029000855F914008F443C08091E1008F5F8093B7
:1002A000E1008B3008F093C086EC0E94F2048AEFE4
:1002B00090E00197F1F78091DA0086FF2CC08AE286
:1002C0000E94280587E00E9487049093B1008093E4
:1002D000B000855F9140B8F08091E2008F5F80931D
:1002E000E2008B3008F06BC087EC0E94F2048AEFCA
:1002F00090E00197F1F78091DA0087FDA0C080E2DD
:100300000E94280508951092E2008091DA008F770C
:100310008093DA00E9CF80E20E942805D3CF1092C3
:10032000E1008091DA008F7B8093DA00BDCF80E21C
:100330000E942805A6CF1092E0008091DA008F7D00
:100340008093DA0090CF80E20E94280579CF109246
:10035000DF008091DA008F7E8093DA0063CF80E245
:100360000E9428054CCF1092DE008091DA00877F32
:100370008093DA0036CF80E20E9428051FCF1092CA
:10038000DD008091DA008B7F8093DA0009CF80E274
:100390000E942805F2CE1092DC008091DA008D7F59
:1003A0008093DA00DCCE80E20E942805C5CE109250
:1003B000DB008091DA008E7F8093DA00AFCE8091EF
:1003C000DA0080688093DA001092E2008DCF80918D
:1003D000DA0080648093DA001092E10065CF8091AA
:1003E000DA0080628093DA001092E0003CCF8091C6
:1003F000DA0080618093DA001092DF0013CF8091E1
:10040000DA0088608093DA001092DE00EACE8091F4
:10041000DA0084608093DA001092DD00C1CE809112
:10042000DA0082608093DA001092DC0098CE80912E
:10043000DA0081608093DA001092DB006FCE8AE2EE
:100440000E9428050895CF92DF92FF920F931F9389
:10045000CF93DF930E94FF078FE384BB85E585BBC5
:10046000BF9AC7988CE090E00E94A1030E943703D6
:100470000E9483040E94BE0581E40E94AC0386E5CD
:100480000E94AC0382E50E94AC030E94840780E0D6
:1004900090E029E130E0F9013197F1F7019643E16D
:1004A00088389407C1F780E068EE73E00E94B807CF
:1004B00082E06AE070E00E94B80783E068E873E1D8
:1004C0000E94B80784E064E670E00E94B807789460
:1004D00090E3F92E8AEFC82ED12C07C00E94490064
:1004E00081E00E94D0078330A1F182E00E94D00712
:1004F000833009F462C080E00E94D007833071F736
:10050000809170008F5F809370008A3310F0F092BA
:1005100070008FE80E94F204809170000E9428050C
:1005200080E068EE73E00E94B80784E00E94D00784
:10053000813009F44AC080E80E94F20488E690E025
:100540000E945E050E94490081E00E94D00783302E
:1005500061F62091EA008091E900122F00E090E01E
:10056000802B912B9093B4008093B30083EE90E0A6
:1005700066E00E94B403AC019093B6008093B5008E
:100580008091E7009091E800D82FC0E0292F30E05B
:100590002C2B3D2B3093B8002093B7006091E300E3
:1005A0006130D9F01092BD0081E00E94F80782E02E
:1005B0000E94D007833009F09ECF0E940E0882E08F
:1005C0006AE070E00E94B80796CF80E80E94F204CB
:1005D00080E690E00E945E0581CF8091B30090910B
:1005E000B40048175907F1F622303105D9F6609367
:1005F000C6008091E4008093C70084E08093C80027
:100600001092C9008091DA008093CA001092CB004A
:100610000E940B088093CC0086EC90E067E00E947B
:10062000B4038093B5009093B6008093CD0090936F
:10063000CE00C79AC6010197F1F71092C500E0E01D
:10064000F0E0EA53FF4F80810E94AC03E091C500C7
:10065000EF5FE093C500E93098F3C6010197F1F729
:10066000C79884E068EB7BE00E94B8079BCF82E0EC
:1006700083BF83E882BF1CBE81E089BF08951F92BB
:100680000F920FB60F9211248F939F938091B90010
:100690009091BA0001969093BA008093B90080912E
:1006A000BB009091BC0001969093BC008093BB006E
:1006B00083E882BF9F918F910F900FBE0F901F9084
:1006C00018956FB7F89420E030E049E150E0CA0196
:1006D0000197F1F72F5F3F4F87E220313807B9F7D5
:1006E00089B78F7389BF88E082BD87ED84BD81E0C3
:1006F00085BD82B522B542B530E02270307090E001
:1007000084709070282B392B50E041705070242B4E
:10071000352B232B71F788B7806C88BF89B780642D
:1007200089BF6FBF08951F920F920FB60F921124C9
:100730008F9387ED84BD8F910F900FBE0F901F9008
:10074000189521E021BB89B990BD82E08BB986E87C
:1007500080BD88E98AB908955D9BFECF8CB9089564
:100760005F9BFECF8CB10895782F662309F490C06B
:100770009C01D9012FEF3FEFE1E0F0EA45C0CA014B
:100780009C0136952795A9014E275F2780FF51C010
:10079000CA019C0136952795A9014E275F2780FF46
:1007A00051C0CA019C0136952795A9014E275F27A4
:1007B00080FF51C0CA019C0136952795A9014E279B
:1007C0005F2780FF51C0CA019C0136952795A9017A
:1007D0004E275F2780FF51C0CA019C01369527959F
:1007E000A9014E275F2780FD9A01C901969587953B
:1007F000AC014E275F2720FF42C09A0111968A2F35
:10080000871B861708F042C08C9190E082279327BF
:100810009C0136952795A9014E275F2780FDAFCF14
:10082000C9019C0136952795A9014E275F2780FDB8
:10083000AFCFC9019C0136952795A9014E275F27A7
:1008400080FDAFCFC9019C0136952795A9014E27A0
:100850005F2780FDAFCFC9019C0136952795A9017F
:100860004E275F2780FDAFCFC9019C0136952795A4
:10087000A9014E275F2780FDAFCFC901AECF9C01F4
:1008800011968A2F871B861708F4BECFC9010895D9
:100890002FEF3FEFFBCF1F920F920FB60F92112455
:1008A0002F933F934F935F936F937F938F939F9378
:1008B000AF93BF93EF93FF939CB19093710080919E
:1008C000BD008A3050F48091BD00E82FF0E0ED517A
:1008D000FF4F90838F5F8093BD0081E064E170E003
:1008E0000E94B807FF91EF91BF91AF919F918F91B7
:1008F0007F916F915F914F913F912F910F900FBE1C
:100900000F901F90189517B884E886B9089597B18D
:10091000987F982B97B9369A3699FECF24B135B186
:10092000C901089508950895DB98DA9A8BBBDC9A83
:10093000DC98DC9ADA9ADB9A0895DB98DA988BBB1C
:10094000DC9ADC98DC9ADA9ADB9A0895DD98DE98D6
:10095000DB98DA988FE38BBBDC9ADC9808958FEFF5
:100960008ABB8CEF81BB1BBA12BADA98DB98DC9A8F
:10097000DD9ADE98DF9ADB98DA9880E48BBBDC9A0C
:10098000DC98DC9ADA9ADB9ADB98DA9888EB8BBBF6
:10099000DC9ADC98DC9ADA9ADB9A8FE39FE0DB98AA
:1009A000DA9A9BBBDC9ADC98DC9ADA9ADB9A815063
:1009B000B0F70895979887FD13C0969886FD969A8C
:1009C000959885FD959A949884FD949A939A8AEFC8
:1009D00090E0FC013197F1F793980197F1F70895B2
:1009E000979AEBCF282F92989398979887FD2CC0D1
:1009F0009698822F26FD969A959885FD959A9498BB
:100A000084FD949A939A8AEF90E0FC013197F1F774
:100A100093980197F1F79798822F8295807F23FD15
:100A200015C0969886FD969A959885FD959A949806
:100A300084FD949A939A8AEF90E0FC013197F1F744
:100A400093980197F1F70895979AD2CF979AE9CFA3
:100A5000282F929A9398979887FD2CC09698822F6A
:100A600026FD969A959885FD959A949884FD949A7A
:100A7000939A8AEF90E0FC013197F1F793980197F0
:100A8000F1F79798822F8295807F23FD15C0969865
:100A900086FD969A959885FD959A949884FD949AEA
:100AA000939A8AEF90E0FC013197F1F793980197C0
:100AB000F1F70895979AD2CF979AE9CFDF93CF9322
:100AC00000D0CDB7DEB7AC011A821982E981FA8174
:100AD000E80FF91F8081882309F44BC02AEF30E02A
:100AE00064EC79E038C096988E2FE6FD969A95983A
:100AF00085FD959A949884FD949A939AC9010197DB
:100B0000F1F79398C9010197F1F797988E2F829585
:100B1000807FE3FD2CC0969886FD969A959885FD7A
:100B2000959A949884FD949A939AC9010197F1F744
:100B30009398C9010197F1F789819A8101969A8367
:100B40008983CB010197F1F7E981FA81E40FF51F61
:100B50008081882371F0E981FA81E40FF51FE0813B
:100B6000929A93989798E7FFBECF979ABCCF979A9F
:100B7000D2CF0F900F90CF91DF9108958F9A8E9AD8
:100B80008D9A8C9A8B9A8A9A88EA91E60197F1F766
:100B900092989398979896989598959A9498949AED
:100BA000939A8AEF90E0FC013197F1F79398FC015A
:100BB0003197F1F7E4ECF9E03197F1F797989698CF
:100BC0009598959A9498949A939AFC013197F1F795
:100BD0009398FC013197F1F728E833E1F901319757
:100BE000F1F7979896989598959A9498949A939ADD
:100BF000FC013197F1F79398FC013197F1F7F90176
:100C00003197F1F7979896989598959A9498939A22
:100C1000FC013197F1F79398FC013197F1F7FC0152
:100C20003197F1F792989398979896989598959A06
:100C30009498939AFC013197F1F79398FC013197BE
:100C4000F1F79798979A969895989498939AFC01AB
:100C50003197F1F79398FC013197F1F7FC01319747
:100C6000F1F7929893989798969895989498939A64
:100C7000FC013197F1F79398FC013197F1F79798C0
:100C8000979A969895989498939AFC013197F1F7D2
:100C90009398FC013197F1F7FC013197F1F79298A5
:100CA00093989798969895989498939AFC01319771
:100CB000F1F79398FC013197F1F7979896989598EA
:100CC0009498949A939AFC013197F1F79398FC01C8
:100CD0003197F1F7E8EEF3E03197F1F792989398B6
:100CE0009798969895989498939AFC013197F1F774
:100CF0009398FC013197F1F797989698969A959862
:100D0000959A9498939AFC013197F1F79398FC0186
:100D10003197F1F7FC013197F1F7929893989798F2
:100D2000969895989498939AFC013197F1F7939837
:100D3000FC013197F1F79798979A9698969A95981B
:100D40009498939AFC013197F1F79398FC013197AD
:100D5000F1F70197F1F70895DF93CF9300D0CDB766
:100D6000DEB78F9A8E9A8D9A8C9A8B9A8A9A0E9465
:100D7000BE051A821982E981FA81EE58FF4F8081FF
:100D8000882309F44BC02AEF30E044EC59E038C026
:100D900096988E2FE6FD969A959885FD959A94984B
:100DA00084FD949A939AC9010197F1F79398C90128
:100DB0000197F1F797988E2F8295807FE3FD2CC0E5
:100DC000969886FD969A959885FD959A949884FDB7
:100DD000949A939AC9010197F1F79398C9010197E1
:100DE000F1F789819A8101969A838983CA010197D3
:100DF000F1F7E981FA81EE58FF4F8081882371F085
:100E0000E981FA81EE58FF4FE081929A9398979882
:100E1000E7FFBECF979ABCCF979AD2CF929893987C
:100E20009798979A9698969A95989498939A8AEF05
:100E300090E0FC013197F1F79398FC013197F1F7BD
:100E40009798969895989498939AFC013197F1F712
:100E500093980197F1F78AE18A95F1F71A8219823E
:100E6000E981FA81E158FF4F8081882309F44BC062
:100E70002AEF30E044EC59E038C096988E2FE6FD1A
:100E8000969A959885FD959A949884FD949A939A4C
:100E9000C9010197F1F79398C9010197F1F7979864
:100EA0008E2F8295807FE3FD2CC0969886FD969AC2
:100EB000959885FD959A949884FD949A939AC90182
:100EC0000197F1F79398C9010197F1F789819A8108
:100ED00001969A838983CA010197F1F7E981FA8122
:100EE000E158FF4F8081882371F0E981FA81E15850
:100EF000FF4FE081929A93989798E7FFBECF979A19
:100F0000BCCF979AD2CFFFCF1092EE001092ED0097
:100F100082E0809301011092F8001092F700109285
:100F2000F0001092EF00809302011092FA001092EC
:100F3000F9001092F2001092F100809303011092D8
:100F4000FC001092FB001092F4001092F3008093CA
:100F500004011092FE001092FD001092F600109213
:100F6000F50080930501109200011092FF00089592
:100F7000A82FB0E02091BB003091BC00CD01880FBC
:100F8000991FFC01E351FF4F31832083AF5FBE4FB8
:100F900021E02C9389509F4FFC0171836083089559
:100FA000CF93DF93E82FF0E0EF01CF5FDE4F888132
:100FB000813021F08881DF91CF9108958091BB002D
:100FC0009091BC00EE0FFF1FDF01A351BF4F4D9169
:100FD0005C91E950FF4F20813181841B950B2817CC
:100FE000390740F783E088838881DF91CF910895A6
:100FF000E1E0F1E0E80FF11D82E08083089587B31E
:101000008C7F87BB18BA08951092BE001092C00062
:101010001092BF0008958091BE0008951F9316B3EB
:1010200013708091C1001817F1F11092BF008091E8
:10103000C0008130A1F0823061F11092BE008AE8D8
:101040000E94F20489EA90E00E945E0583E00E941B
:10105000D007833091F01093C1001F9108958093C1
:10106000BE008AE80E94F2048DE990E00E945E05CD
:1010700083E00E94D007833071F71092BE00109277
:10108000C0001092BF000E94F8071093C1001F918A
:1010900008958093BE008AE80E94F20483EA90E0FB
:1010A0000E945E05D3CF112311F28091BF008F5FA4
:1010B0008093BF00833008F4BACF1093C00083E060
:1010C00068E873E10E94B807B2CF991B79E004C0C9
:1010D000991F961708F0961B881F7A95C9F7809577
:1010E0000895AA1BBB1B51E107C0AA1FBB1FA6176F
:1010F000B70710F0A61BB70B881F991F5A95A9F7C1
:0E11000080959095BC01CD010895F894FFCF25
:10110E004F4E4C494E4520004F46464C494E4500E9
:10111E00305256656E6B6174657368612052004C77
:10112E0043442D4156522D346420286763632900B1
:10113E004175672D31322C203230313500535441F8
:10114E0052540053544F50200020202020200000E5
:00000001FF
